{
  "contractName": "Storage",
  "abi": [
    {
      "anonymous": false,
      "inputs": [
        {
          "indexed": true,
          "name": "key",
          "type": "bytes32"
        },
        {
          "indexed": false,
          "name": "cid",
          "type": "string"
        }
      ],
      "name": "Registered",
      "type": "event"
    },
    {
      "anonymous": false,
      "inputs": [
        {
          "indexed": false,
          "name": "provider",
          "type": "string"
        },
        {
          "indexed": false,
          "name": "uri",
          "type": "string"
        },
        {
          "indexed": false,
          "name": "providerSetter",
          "type": "address"
        }
      ],
      "name": "RegisterStorageProvider",
      "type": "event"
    },
    {
      "constant": false,
      "inputs": [
        {
          "name": "_key",
          "type": "bytes32"
        },
        {
          "name": "_value",
          "type": "string"
        }
      ],
      "name": "registerData",
      "outputs": [],
      "payable": false,
      "stateMutability": "nonpayable",
      "type": "function"
    },
    {
      "constant": true,
      "inputs": [
        {
          "name": "_key",
          "type": "bytes32"
        }
      ],
      "name": "getRegisteredData",
      "outputs": [
        {
          "name": "",
          "type": "string"
        }
      ],
      "payable": false,
      "stateMutability": "view",
      "type": "function"
    },
    {
      "constant": false,
      "inputs": [
        {
          "name": "newProvider",
          "type": "string"
        },
        {
          "name": "newUri",
          "type": "string"
        }
      ],
      "name": "registerStorageProvider",
      "outputs": [],
      "payable": false,
      "stateMutability": "nonpayable",
      "type": "function"
    },
    {
      "constant": true,
      "inputs": [],
      "name": "getStorageProvider",
      "outputs": [
        {
          "name": "",
          "type": "string"
        },
        {
          "name": "",
          "type": "string"
        }
      ],
      "payable": false,
      "stateMutability": "view",
      "type": "function"
    }
  ],
  "bytecode": "0x608060405234801561001057600080fd5b506107a5806100206000396000f300608060405260043610610062576000357c0100000000000000000000000000000000000000000000000000000000900463ffffffff16806349b29bd6146100675780634f03f391146100b05780639ab116091461015a578063cb4b424d14610256575b600080fd5b34801561007357600080fd5b506100ae60048036038101908080356000191690602001909291908035906020019082018035906020019190919293919293905050506102a9565b005b3480156100bc57600080fd5b506100df600480360381019080803560001916906020019092919050505061032e565b6040518080602001828103825283818151815260200191508051906020019080838360005b8381101561011f578082015181840152602081019050610104565b50505050905090810190601f16801561014c5780820380516001836020036101000a031916815260200191505b509250505060405180910390f35b34801561016657600080fd5b5061016f6103ea565b604051808060200180602001838103835285818151815260200191508051906020019080838360005b838110156101b3578082015181840152602081019050610198565b50505050905090810190601f1680156101e05780820380516001836020036101000a031916815260200191505b50838103825284818151815260200191508051906020019080838360005b838110156102195780820151818401526020810190506101fe565b50505050905090810190601f1680156102465780820380516001836020036101000a031916815260200191505b5094505050505060405180910390f35b34801561026257600080fd5b506102a7600480360381019080803590602001908201803590602001919091929391929390803590602001908201803590602001919091929391929390505050610531565b005b8181600080866000191660001916815260200190815260200160002091906102d29291906106d4565b5082600019167f660290a9c1827d8333ca2d256c1e1858f21147022678ad3441429c751aedf0a28383604051808060200182810382528484828181526020019250808284378201915050935050505060405180910390a2505050565b606060008083600019166000191681526020019081526020016000208054600181600116156101000203166002900480601f0160208091040260200160405190810160405280929190818152602001828054600181600116156101000203166002900480156103de5780601f106103b3576101008083540402835291602001916103de565b820191906000526020600020905b8154815290600101906020018083116103c157829003601f168201915b50505050509050919050565b60608060016002818054600181600116156101000203166002900480601f0160208091040260200160405190810160405280929190818152602001828054600181600116156101000203166002900480156104865780601f1061045b57610100808354040283529160200191610486565b820191906000526020600020905b81548152906001019060200180831161046957829003601f168201915b50505050509150808054600181600116156101000203166002900480601f0160208091040260200160405190810160405280929190818152602001828054600181600116156101000203166002900480156105225780601f106104f757610100808354040283529160200191610522565b820191906000526020600020905b81548152906001019060200180831161050557829003601f168201915b50505050509050915091509091565b8383600191906105429291906106d4565b508181600291906105549291906106d4565b507f074fc0c38032af35d77f06794c2f8953262c383e224e34778d64300eb2523c3f60016002336040518080602001806020018473ffffffffffffffffffffffffffffffffffffffff1673ffffffffffffffffffffffffffffffffffffffff16815260200183810383528681815460018160011615610100020316600290048152602001915080546001816001161561010002031660029004801561063a5780601f1061060f5761010080835404028352916020019161063a565b820191906000526020600020905b81548152906001019060200180831161061d57829003601f168201915b50508381038252858181546001816001161561010002031660029004815260200191508054600181600116156101000203166002900480156106bd5780601f10610692576101008083540402835291602001916106bd565b820191906000526020600020905b8154815290600101906020018083116106a057829003601f168201915b50509550505050505060405180910390a150505050565b828054600181600116156101000203166002900490600052602060002090601f016020900481019282601f1061071557803560ff1916838001178555610743565b82800160010185558215610743579182015b82811115610742578235825591602001919060010190610727565b5b5090506107509190610754565b5090565b61077691905b8082111561077257600081600090555060010161075a565b5090565b905600a165627a7a72305820bc1d0ac32527a603236087fad3f8ac0919b5a9985fc8322689521884998e20d80029",
  "source": "pragma solidity ^0.4.24;\n\n\ncontract Storage {\n\n    /// Events\n    event Registered(bytes32 indexed key, string cid);\n    event RegisterStorageProvider(string provider, string uri, address providerSetter);\n\n    /// State: data registry\n    mapping(bytes32 => string) internal registeredData;\n\n    string provider;\n    string uri;\n\n    /**\n     * @notice Set `_key` data to `_value`\n     * @param _key Data item that will be stored in the registry\n     * @param _value Data content to be stored\n     */\n\n    function registerData(bytes32 _key, string _value) external {\n        // TODO: check that _key is an app proxy\n        // TODO: check that _key is installed in this org\n        registeredData[_key] = _value;\n        emit Registered(_key, _value);\n    }\n\n    function getRegisteredData(bytes32 _key) external view returns(string) {\n        return registeredData[_key];\n    }\n\n    function registerStorageProvider(string newProvider, string newUri) external {\n        provider = newProvider;\n        uri = newUri;\n        emit RegisterStorageProvider(provider, uri, msg.sender);\n    }\n\n    function getStorageProvider() external view returns(string, string) {\n        return (\n            provider,\n            uri\n        );\n    }\n}\n",
  "sourcePath": "/Users/jonathanschwartz/Documents/owl/quasar/contracts/Storage.sol",
  "compiler": {
    "name": "solc",
    "version": "0.4.24+commit.e67f0147.Emscripten.clang"
  },
  "schemaVersion": "3.0.15",
  "updatedAt": "2019-09-10T19:04:32.815Z",
  "devdoc": {
    "methods": {
      "registerData(bytes32,string)": {
        "params": {
          "_key": "Data item that will be stored in the registry",
          "_value": "Data content to be stored"
        }
      }
    }
  },
  "userdoc": {
    "methods": {
      "registerData(bytes32,string)": {
        "notice": "Set `_key` data to `_value`"
      }
    }
  }
}